{
  "contractName": "HelloWorld",
  "abi": [
    {
      "inputs": [],
      "name": "test",
      "outputs": [
        {
          "internalType": "string",
          "name": "",
          "type": "string"
        }
      ],
      "stateMutability": "pure",
      "type": "function",
      "constant": true
    },
    {
      "inputs": [],
      "name": "test1",
      "outputs": [
        {
          "internalType": "string",
          "name": "",
          "type": "string"
        }
      ],
      "stateMutability": "pure",
      "type": "function",
      "constant": true
    },
    {
      "inputs": [
        {
          "internalType": "string",
          "name": "name",
          "type": "string"
        }
      ],
      "name": "echo",
      "outputs": [
        {
          "internalType": "string",
          "name": "",
          "type": "string"
        }
      ],
      "stateMutability": "pure",
      "type": "function",
      "constant": true
    }
  ],
  "bytecode": "0x608060405234801561001057600080fd5b506103b0806100206000396000f3fe608060405234801561001057600080fd5b50600436106100415760003560e01c80636b59084d14610046578063f15da72914610064578063f8a8fd6d14610094575b600080fd5b61004e6100b2565b60405161005b91906101c6565b60405180910390f35b61007e60048036038101906100799190610331565b6100ef565b60405161008b91906101c6565b60405180910390f35b61009c6100f9565b6040516100a991906101c6565b60405180910390f35b60606040518060400160405280600d81526020017f48656c6c6f20576f726c64203100000000000000000000000000000000000000815250905090565b6060819050919050565b60606040518060400160405280600b81526020017f48656c6c6f20576f726c64000000000000000000000000000000000000000000815250905090565b600081519050919050565b600082825260208201905092915050565b60005b83811015610170578082015181840152602081019050610155565b60008484015250505050565b6000601f19601f8301169050919050565b600061019882610136565b6101a28185610141565b93506101b2818560208601610152565b6101bb8161017c565b840191505092915050565b600060208201905081810360008301526101e0818461018d565b905092915050565b6000604051905090565b600080fd5b600080fd5b600080fd5b600080fd5b7f4e487b7100000000000000000000000000000000000000000000000000000000600052604160045260246000fd5b61023e8261017c565b810181811067ffffffffffffffff8211171561025d5761025c610206565b5b80604052505050565b60006102706101e8565b905061027c8282610235565b919050565b600067ffffffffffffffff82111561029c5761029b610206565b5b6102a58261017c565b9050602081019050919050565b82818337600083830152505050565b60006102d46102cf84610281565b610266565b9050828152602081018484840111156102f0576102ef610201565b5b6102fb8482856102b2565b509392505050565b600082601f830112610318576103176101fc565b5b81356103288482602086016102c1565b91505092915050565b600060208284031215610347576103466101f2565b5b600082013567ffffffffffffffff811115610365576103646101f7565b5b61037184828501610303565b9150509291505056fea2646970667358221220a9263f43e5654dcc30e675e97e8f0de4be84ad605d41a343694c5d616ebec3b364736f6c63430008110033",
  "immutableReferences": {},
  "source": "//SPDX-License-Identifier: Unlicense\npragma solidity ^0.8.0;\n\n\ncontract HelloWorld {\n    string private greeting;\n\n    function test() public pure returns (string memory){\n        return \"Hello World\";\n    }\n\n    function test1() public pure returns (string memory){\n        return \"Hello World 1\";\n    }\n\n    function echo(string memory name) public pure returns (string memory){\n        return name;\n    }\n}\n",
  "sourcePath": "/home/joshua/solidity/learn/myProject/contracts/HelloWorld.sol",
  "compiler": {
    "name": "solc",
    "version": "0.8.17+commit.8df45f5f.Emscripten.clang"
  },
  "schemaVersion": "3.4.10",
  "updatedAt": "2022-10-11T08:38:33.509Z",
  "networkType": "ethereum",
  "devdoc": {
    "kind": "dev",
    "methods": {},
    "version": 1
  },
  "userdoc": {
    "kind": "user",
    "methods": {},
    "version": 1
  }
}